{
  "_format": "hh-sol-artifact-1",
  "contractName": "Tracking",
  "sourceName": "contracts/Tracking.sol",
  "abi": [
    {
      "inputs": [],
      "stateMutability": "nonpayable",
      "type": "constructor"
    },
    {
      "anonymous": false,
      "inputs": [
        {
          "indexed": true,
          "internalType": "address",
          "name": "sender",
          "type": "address"
        },
        {
          "indexed": true,
          "internalType": "address",
          "name": "receiver",
          "type": "address"
        },
        {
          "indexed": false,
          "internalType": "uint256",
          "name": "pickuptime",
          "type": "uint256"
        },
        {
          "indexed": false,
          "internalType": "uint256",
          "name": "distance",
          "type": "uint256"
        },
        {
          "indexed": false,
          "internalType": "uint256",
          "name": "price",
          "type": "uint256"
        }
      ],
      "name": "ShipmentCreated",
      "type": "event"
    },
    {
      "anonymous": false,
      "inputs": [
        {
          "indexed": true,
          "internalType": "address",
          "name": "sender",
          "type": "address"
        },
        {
          "indexed": true,
          "internalType": "address",
          "name": "receiver",
          "type": "address"
        },
        {
          "indexed": false,
          "internalType": "uint256",
          "name": "deliveryTime",
          "type": "uint256"
        }
      ],
      "name": "ShipmentDelivered",
      "type": "event"
    },
    {
      "anonymous": false,
      "inputs": [
        {
          "indexed": true,
          "internalType": "address",
          "name": "sender",
          "type": "address"
        },
        {
          "indexed": true,
          "internalType": "address",
          "name": "receiver",
          "type": "address"
        },
        {
          "indexed": false,
          "internalType": "uint256",
          "name": "pickuptime",
          "type": "uint256"
        }
      ],
      "name": "ShipmentInTransit",
      "type": "event"
    },
    {
      "anonymous": false,
      "inputs": [
        {
          "indexed": true,
          "internalType": "address",
          "name": "sender",
          "type": "address"
        },
        {
          "indexed": true,
          "internalType": "address",
          "name": "receiver",
          "type": "address"
        },
        {
          "indexed": false,
          "internalType": "uint256",
          "name": "amount",
          "type": "uint256"
        }
      ],
      "name": "ShipmentPaid",
      "type": "event"
    },
    {
      "inputs": [
        {
          "internalType": "address",
          "name": "_sender",
          "type": "address"
        },
        {
          "internalType": "address",
          "name": "_receiver",
          "type": "address"
        },
        {
          "internalType": "uint256",
          "name": "_index",
          "type": "uint256"
        }
      ],
      "name": "completShipment",
      "outputs": [],
      "stateMutability": "nonpayable",
      "type": "function"
    },
    {
      "inputs": [
        {
          "internalType": "address",
          "name": "_receiver",
          "type": "address"
        },
        {
          "internalType": "uint256",
          "name": "_pickupTime",
          "type": "uint256"
        },
        {
          "internalType": "uint256",
          "name": "_distance",
          "type": "uint256"
        },
        {
          "internalType": "uint256",
          "name": "_price",
          "type": "uint256"
        }
      ],
      "name": "createShipment",
      "outputs": [],
      "stateMutability": "payable",
      "type": "function"
    },
    {
      "inputs": [],
      "name": "getAllTransactions",
      "outputs": [
        {
          "components": [
            {
              "internalType": "address",
              "name": "sender",
              "type": "address"
            },
            {
              "internalType": "address",
              "name": "receiver",
              "type": "address"
            },
            {
              "internalType": "uint256",
              "name": "pickupTime",
              "type": "uint256"
            },
            {
              "internalType": "uint256",
              "name": "deliveryTime",
              "type": "uint256"
            },
            {
              "internalType": "uint256",
              "name": "distance",
              "type": "uint256"
            },
            {
              "internalType": "uint256",
              "name": "price",
              "type": "uint256"
            },
            {
              "internalType": "enum Tracking.ShipmentStatus",
              "name": "status",
              "type": "uint8"
            },
            {
              "internalType": "bool",
              "name": "isPaid",
              "type": "bool"
            }
          ],
          "internalType": "struct Tracking.TypeShipment[]",
          "name": "",
          "type": "tuple[]"
        }
      ],
      "stateMutability": "view",
      "type": "function"
    },
    {
      "inputs": [
        {
          "internalType": "address",
          "name": "_sender",
          "type": "address"
        },
        {
          "internalType": "uint256",
          "name": "_index",
          "type": "uint256"
        }
      ],
      "name": "getShipment",
      "outputs": [
        {
          "internalType": "address",
          "name": "",
          "type": "address"
        },
        {
          "internalType": "address",
          "name": "",
          "type": "address"
        },
        {
          "internalType": "uint256",
          "name": "",
          "type": "uint256"
        },
        {
          "internalType": "uint256",
          "name": "",
          "type": "uint256"
        },
        {
          "internalType": "uint256",
          "name": "",
          "type": "uint256"
        },
        {
          "internalType": "uint256",
          "name": "",
          "type": "uint256"
        },
        {
          "internalType": "enum Tracking.ShipmentStatus",
          "name": "",
          "type": "uint8"
        },
        {
          "internalType": "bool",
          "name": "",
          "type": "bool"
        }
      ],
      "stateMutability": "view",
      "type": "function"
    },
    {
      "inputs": [
        {
          "internalType": "address",
          "name": "_sender",
          "type": "address"
        }
      ],
      "name": "getShipmentCount",
      "outputs": [
        {
          "internalType": "uint256",
          "name": "",
          "type": "uint256"
        }
      ],
      "stateMutability": "view",
      "type": "function"
    },
    {
      "inputs": [],
      "name": "shipmentCount",
      "outputs": [
        {
          "internalType": "uint256",
          "name": "",
          "type": "uint256"
        }
      ],
      "stateMutability": "view",
      "type": "function"
    },
    {
      "inputs": [
        {
          "internalType": "address",
          "name": "",
          "type": "address"
        },
        {
          "internalType": "uint256",
          "name": "",
          "type": "uint256"
        }
      ],
      "name": "shipments",
      "outputs": [
        {
          "internalType": "address",
          "name": "sender",
          "type": "address"
        },
        {
          "internalType": "address",
          "name": "receiver",
          "type": "address"
        },
        {
          "internalType": "uint256",
          "name": "pickupTime",
          "type": "uint256"
        },
        {
          "internalType": "uint256",
          "name": "deliveryTime",
          "type": "uint256"
        },
        {
          "internalType": "uint256",
          "name": "distance",
          "type": "uint256"
        },
        {
          "internalType": "uint256",
          "name": "price",
          "type": "uint256"
        },
        {
          "internalType": "enum Tracking.ShipmentStatus",
          "name": "status",
          "type": "uint8"
        },
        {
          "internalType": "bool",
          "name": "isPaid",
          "type": "bool"
        }
      ],
      "stateMutability": "view",
      "type": "function"
    },
    {
      "inputs": [
        {
          "internalType": "address",
          "name": "_sender",
          "type": "address"
        },
        {
          "internalType": "address",
          "name": "_receiver",
          "type": "address"
        },
        {
          "internalType": "uint256",
          "name": "_index",
          "type": "uint256"
        }
      ],
      "name": "startShipment",
      "outputs": [],
      "stateMutability": "nonpayable",
      "type": "function"
    }
  ],
  "bytecode": "0x608060405234801561001057600080fd5b506000600181905550611947806100286000396000f3fe60806040526004361061007b5760003560e01c806397caddfd1161004e57806397caddfd1461015c578063aace20b714610185578063b7dfd93d146101b0578063cbc4b181146101ed5761007b565b806327506f53146100805780635667e02f146100ab5780637ff5265d146100ef5780638365da5414610118575b600080fd5b34801561008c57600080fd5b50610095610209565b6040516100a29190611366565b60405180910390f35b3480156100b757600080fd5b506100d260048036038101906100cd91906113e5565b610393565b6040516100e6989796959493929190611461565b60405180910390f35b3480156100fb57600080fd5b50610116600480360381019061011191906114df565b610452565b005b34801561012457600080fd5b5061013f600480360381019061013a91906113e5565b6106ae565b604051610153989796959493929190611461565b60405180910390f35b34801561016857600080fd5b50610183600480360381019061017e91906114df565b610898565b005b34801561019157600080fd5b5061019a610c6c565b6040516101a79190611532565b60405180910390f35b3480156101bc57600080fd5b506101d760048036038101906101d2919061154d565b610c72565b6040516101e49190611532565b60405180910390f35b6102076004803603810190610202919061157a565b610cbd565b005b60606002805480602002602001604051908101604052809291908181526020016000905b8282101561038a5783829060005260206000209060070201604051806101000160405290816000820160009054906101000a900473ffffffffffffffffffffffffffffffffffffffff1673ffffffffffffffffffffffffffffffffffffffff1673ffffffffffffffffffffffffffffffffffffffff1681526020016001820160009054906101000a900473ffffffffffffffffffffffffffffffffffffffff1673ffffffffffffffffffffffffffffffffffffffff1673ffffffffffffffffffffffffffffffffffffffff168152602001600282015481526020016003820154815260200160048201548152602001600582015481526020016006820160009054906101000a900460ff16600281111561034a576103496111ae565b5b600281111561035c5761035b6111ae565b5b81526020016006820160019054906101000a900460ff1615151515815250508152602001906001019061022d565b50505050905090565b600060205281600052604060002081815481106103af57600080fd5b9060005260206000209060070201600091509150508060000160009054906101000a900473ffffffffffffffffffffffffffffffffffffffff16908060010160009054906101000a900473ffffffffffffffffffffffffffffffffffffffff16908060020154908060030154908060040154908060050154908060060160009054906101000a900460ff16908060060160019054906101000a900460ff16905088565b60008060008573ffffffffffffffffffffffffffffffffffffffff1673ffffffffffffffffffffffffffffffffffffffff16815260200190815260200160002082815481106104a4576104a36115e1565b5b906000526020600020906007020190506000600283815481106104ca576104c96115e1565b5b906000526020600020906007020190508373ffffffffffffffffffffffffffffffffffffffff168260010160009054906101000a900473ffffffffffffffffffffffffffffffffffffffff1673ffffffffffffffffffffffffffffffffffffffff161461056c576040517f08c379a00000000000000000000000000000000000000000000000000000000081526004016105639061166d565b60405180910390fd5b600060028111156105805761057f6111ae565b5b8260060160009054906101000a900460ff1660028111156105a4576105a36111ae565b5b146105e4576040517f08c379a00000000000000000000000000000000000000000000000000000000081526004016105db906116d9565b60405180910390fd5b60018260060160006101000a81548160ff0219169083600281111561060c5761060b6111ae565b5b021790555060018160060160006101000a81548160ff02191690836002811115610639576106386111ae565b5b02179055508373ffffffffffffffffffffffffffffffffffffffff168573ffffffffffffffffffffffffffffffffffffffff167faafab9f94340179ff9cefd29621e1772a4b8efab8023163838f1b0a8f6ce5df5846002015460405161069f9190611532565b60405180910390a35050505050565b60008060008060008060008060008060008c73ffffffffffffffffffffffffffffffffffffffff1673ffffffffffffffffffffffffffffffffffffffff1681526020019081526020016000208a8154811061070c5761070b6115e1565b5b9060005260206000209060070201604051806101000160405290816000820160009054906101000a900473ffffffffffffffffffffffffffffffffffffffff1673ffffffffffffffffffffffffffffffffffffffff1673ffffffffffffffffffffffffffffffffffffffff1681526020016001820160009054906101000a900473ffffffffffffffffffffffffffffffffffffffff1673ffffffffffffffffffffffffffffffffffffffff1673ffffffffffffffffffffffffffffffffffffffff168152602001600282015481526020016003820154815260200160048201548152602001600582015481526020016006820160009054906101000a900460ff16600281111561081f5761081e6111ae565b5b6002811115610831576108306111ae565b5b81526020016006820160019054906101000a900460ff1615151515815250509050806000015181602001518260a001518360400151846060015185608001518660c001518760e0015198509850985098509850985098509850509295985092959890939650565b60008060008573ffffffffffffffffffffffffffffffffffffffff1673ffffffffffffffffffffffffffffffffffffffff16815260200190815260200160002082815481106108ea576108e96115e1565b5b906000526020600020906007020190506000600283815481106109105761090f6115e1565b5b906000526020600020906007020190508373ffffffffffffffffffffffffffffffffffffffff168260010160009054906101000a900473ffffffffffffffffffffffffffffffffffffffff1673ffffffffffffffffffffffffffffffffffffffff16146109b2576040517f08c379a00000000000000000000000000000000000000000000000000000000081526004016109a99061166d565b60405180910390fd5b600160028111156109c6576109c56111ae565b5b8260060160009054906101000a900460ff1660028111156109ea576109e96111ae565b5b14610a2a576040517f08c379a0000000000000000000000000000000000000000000000000000000008152600401610a2190611745565b60405180910390fd5b8160060160019054906101000a900460ff1615610a7c576040517f08c379a0000000000000000000000000000000000000000000000000000000008152600401610a73906117b1565b60405180910390fd5b60028260060160006101000a81548160ff02191690836002811115610aa457610aa36111ae565b5b021790555060028160060160006101000a81548160ff02191690836002811115610ad157610ad06111ae565b5b02179055504281600301819055504282600301819055506000826005015490508260000160009054906101000a900473ffffffffffffffffffffffffffffffffffffffff1673ffffffffffffffffffffffffffffffffffffffff166108fc829081150290604051600060405180830381858888f19350505050158015610b5b573d6000803e3d6000fd5b5060018360060160016101000a81548160ff02191690831515021790555060018260060160016101000a81548160ff0219169083151502179055508473ffffffffffffffffffffffffffffffffffffffff168673ffffffffffffffffffffffffffffffffffffffff167f3746ccceb54f44c9b0ee0120e596168d07ec9f6ca303cfdd9810d3b2e2686a2e83604051610bf39190611532565b60405180910390a38473ffffffffffffffffffffffffffffffffffffffff168673ffffffffffffffffffffffffffffffffffffffff167f3746ccceb54f44c9b0ee0120e596168d07ec9f6ca303cfdd9810d3b2e2686a2e8560030154604051610c5c9190611532565b60405180910390a3505050505050565b60015481565b60008060008373ffffffffffffffffffffffffffffffffffffffff1673ffffffffffffffffffffffffffffffffffffffff168152602001908152602001600020805490509050919050565b803414610cff576040517f08c379a0000000000000000000000000000000000000000000000000000000008152600401610cf690611843565b60405180910390fd5b60006040518061010001604052803373ffffffffffffffffffffffffffffffffffffffff1681526020018673ffffffffffffffffffffffffffffffffffffffff1681526020018581526020016000815260200184815260200183815260200160006002811115610d7257610d716111ae565b5b81526020016000151581525090506000803373ffffffffffffffffffffffffffffffffffffffff1673ffffffffffffffffffffffffffffffffffffffff16815260200190815260200160002081908060018154018082558091505060019003906000526020600020906007020160009091909190915060008201518160000160006101000a81548173ffffffffffffffffffffffffffffffffffffffff021916908373ffffffffffffffffffffffffffffffffffffffff16021790555060208201518160010160006101000a81548173ffffffffffffffffffffffffffffffffffffffff021916908373ffffffffffffffffffffffffffffffffffffffff16021790555060408201518160020155606082015181600301556080820151816004015560a0820151816005015560c08201518160060160006101000a81548160ff02191690836002811115610ec957610ec86111ae565b5b021790555060e08201518160060160016101000a81548160ff021916908315150217905550505060016000815480929190610f0390611892565b919050555060026040518061010001604052803373ffffffffffffffffffffffffffffffffffffffff1681526020018773ffffffffffffffffffffffffffffffffffffffff1681526020018681526020016000815260200185815260200184815260200160006002811115610f7b57610f7a6111ae565b5b815260200160001515815250908060018154018082558091505060019003906000526020600020906007020160009091909190915060008201518160000160006101000a81548173ffffffffffffffffffffffffffffffffffffffff021916908373ffffffffffffffffffffffffffffffffffffffff16021790555060208201518160010160006101000a81548173ffffffffffffffffffffffffffffffffffffffff021916908373ffffffffffffffffffffffffffffffffffffffff16021790555060408201518160020155606082015181600301556080820151816004015560a0820151816005015560c08201518160060160006101000a81548160ff02191690836002811115611091576110906111ae565b5b021790555060e08201518160060160016101000a81548160ff02191690831515021790555050508473ffffffffffffffffffffffffffffffffffffffff163373ffffffffffffffffffffffffffffffffffffffff167f5001b34ecf2db5b7bbeddcbbe761ec9ecadcc7638018b98ce3e24995b0e946b6868686604051611119939291906118da565b60405180910390a35050505050565b600081519050919050565b600082825260208201905092915050565b6000819050602082019050919050565b600073ffffffffffffffffffffffffffffffffffffffff82169050919050565b600061117f82611154565b9050919050565b61118f81611174565b82525050565b6000819050919050565b6111a881611195565b82525050565b7f4e487b7100000000000000000000000000000000000000000000000000000000600052602160045260246000fd5b600381106111ee576111ed6111ae565b5b50565b60008190506111ff826111dd565b919050565b600061120f826111f1565b9050919050565b61121f81611204565b82525050565b60008115159050919050565b61123a81611225565b82525050565b610100820160008201516112576000850182611186565b50602082015161126a6020850182611186565b50604082015161127d604085018261119f565b506060820151611290606085018261119f565b5060808201516112a3608085018261119f565b5060a08201516112b660a085018261119f565b5060c08201516112c960c0850182611216565b5060e08201516112dc60e0850182611231565b50505050565b60006112ee8383611240565b6101008301905092915050565b6000602082019050919050565b600061131382611128565b61131d8185611133565b935061132883611144565b8060005b8381101561135957815161134088826112e2565b975061134b836112fb565b92505060018101905061132c565b5085935050505092915050565b600060208201905081810360008301526113808184611308565b905092915050565b600080fd5b61139681611174565b81146113a157600080fd5b50565b6000813590506113b38161138d565b92915050565b6113c281611195565b81146113cd57600080fd5b50565b6000813590506113df816113b9565b92915050565b600080604083850312156113fc576113fb611388565b5b600061140a858286016113a4565b925050602061141b858286016113d0565b9150509250929050565b61142e81611174565b82525050565b61143d81611195565b82525050565b61144c81611204565b82525050565b61145b81611225565b82525050565b600061010082019050611477600083018b611425565b611484602083018a611425565b6114916040830189611434565b61149e6060830188611434565b6114ab6080830187611434565b6114b860a0830186611434565b6114c560c0830185611443565b6114d260e0830184611452565b9998505050505050505050565b6000806000606084860312156114f8576114f7611388565b5b6000611506868287016113a4565b9350506020611517868287016113a4565b9250506040611528868287016113d0565b9150509250925092565b60006020820190506115476000830184611434565b92915050565b60006020828403121561156357611562611388565b5b6000611571848285016113a4565b91505092915050565b6000806000806080858703121561159457611593611388565b5b60006115a2878288016113a4565b94505060206115b3878288016113d0565b93505060406115c4878288016113d0565b92505060606115d5878288016113d0565b91505092959194509250565b7f4e487b7100000000000000000000000000000000000000000000000000000000600052603260045260246000fd5b600082825260208201905092915050565b7f496e76616c696420726563656976657200000000000000000000000000000000600082015250565b6000611657601083611610565b915061166282611621565b602082019050919050565b600060208201905081810360008301526116868161164a565b9050919050565b7f536869706d656e7420616c726561647920696e207472616e7369740000000000600082015250565b60006116c3601b83611610565b91506116ce8261168d565b602082019050919050565b600060208201905081810360008301526116f2816116b6565b9050919050565b7f536869706d656e74204e6f7420696e207472616e736974000000000000000000600082015250565b600061172f601783611610565b915061173a826116f9565b602082019050919050565b6000602082019050818103600083015261175e81611722565b9050919050565b7f536869706d656e7420616c726561647920506169642000000000000000000000600082015250565b600061179b601683611610565b91506117a682611765565b602082019050919050565b600060208201905081810360008301526117ca8161178e565b9050919050565b7f20205061796d656e7420616d6f756e74206d757374206d61746368207468652060008201527f70726963652e0000000000000000000000000000000000000000000000000000602082015250565b600061182d602683611610565b9150611838826117d1565b604082019050919050565b6000602082019050818103600083015261185c81611820565b9050919050565b7f4e487b7100000000000000000000000000000000000000000000000000000000600052601160045260246000fd5b600061189d82611195565b91507fffffffffffffffffffffffffffffffffffffffffffffffffffffffffffffffff82036118cf576118ce611863565b5b600182019050919050565b60006060820190506118ef6000830186611434565b6118fc6020830185611434565b6119096040830184611434565b94935050505056fea2646970667358221220bd5948abaf4e3e81fd147637a97cf07d99027b6c881fc96e95820ad4826c31f564736f6c63430008120033",
  "linkReferences": {},
  "deployedLinkReferences": {}
}